{
  "contractName": "StockTrading",
  "abi": [
    {
      "inputs": [],
      "stateMutability": "nonpayable",
      "type": "constructor"
    },
    {
      "anonymous": false,
      "inputs": [
        {
          "indexed": false,
          "internalType": "uint256",
          "name": "index",
          "type": "uint256"
        },
        {
          "indexed": false,
          "internalType": "bytes32",
          "name": "hash",
          "type": "bytes32"
        },
        {
          "indexed": false,
          "internalType": "bytes32",
          "name": "merkleRoot",
          "type": "bytes32"
        }
      ],
      "name": "BlockCreated",
      "type": "event"
    },
    {
      "anonymous": false,
      "inputs": [
        {
          "indexed": false,
          "internalType": "bytes32",
          "name": "root",
          "type": "bytes32"
        }
      ],
      "name": "MerkleRootAdded",
      "type": "event"
    },
    {
      "anonymous": false,
      "inputs": [
        {
          "indexed": true,
          "internalType": "address",
          "name": "user",
          "type": "address"
        },
        {
          "indexed": false,
          "internalType": "string",
          "name": "stock",
          "type": "string"
        },
        {
          "indexed": false,
          "internalType": "uint256",
          "name": "qty",
          "type": "uint256"
        },
        {
          "indexed": false,
          "internalType": "bool",
          "name": "isBuy",
          "type": "bool"
        }
      ],
      "name": "TradeExecuted",
      "type": "event"
    },
    {
      "inputs": [
        {
          "internalType": "uint256",
          "name": "",
          "type": "uint256"
        }
      ],
      "name": "allTrades",
      "outputs": [
        {
          "internalType": "string",
          "name": "stock",
          "type": "string"
        },
        {
          "internalType": "uint256",
          "name": "quantity",
          "type": "uint256"
        },
        {
          "internalType": "bool",
          "name": "isBuy",
          "type": "bool"
        }
      ],
      "stateMutability": "view",
      "type": "function",
      "constant": true
    },
    {
      "inputs": [
        {
          "internalType": "uint256",
          "name": "",
          "type": "uint256"
        }
      ],
      "name": "blocks",
      "outputs": [
        {
          "internalType": "uint256",
          "name": "index",
          "type": "uint256"
        },
        {
          "internalType": "uint256",
          "name": "timestamp",
          "type": "uint256"
        },
        {
          "internalType": "bytes32",
          "name": "merkleRoot",
          "type": "bytes32"
        },
        {
          "internalType": "bytes32",
          "name": "previousHash",
          "type": "bytes32"
        },
        {
          "internalType": "bytes32",
          "name": "hash",
          "type": "bytes32"
        }
      ],
      "stateMutability": "view",
      "type": "function",
      "constant": true
    },
    {
      "inputs": [
        {
          "internalType": "address",
          "name": "",
          "type": "address"
        },
        {
          "internalType": "string",
          "name": "",
          "type": "string"
        }
      ],
      "name": "holdings",
      "outputs": [
        {
          "internalType": "uint256",
          "name": "",
          "type": "uint256"
        }
      ],
      "stateMutability": "view",
      "type": "function",
      "constant": true
    },
    {
      "inputs": [
        {
          "internalType": "uint256",
          "name": "",
          "type": "uint256"
        }
      ],
      "name": "merkleRoots",
      "outputs": [
        {
          "internalType": "bytes32",
          "name": "",
          "type": "bytes32"
        }
      ],
      "stateMutability": "view",
      "type": "function",
      "constant": true
    },
    {
      "inputs": [],
      "name": "owner",
      "outputs": [
        {
          "internalType": "address",
          "name": "",
          "type": "address"
        }
      ],
      "stateMutability": "view",
      "type": "function",
      "constant": true
    },
    {
      "inputs": [
        {
          "internalType": "address",
          "name": "",
          "type": "address"
        },
        {
          "internalType": "uint256",
          "name": "",
          "type": "uint256"
        }
      ],
      "name": "trades",
      "outputs": [
        {
          "internalType": "string",
          "name": "stock",
          "type": "string"
        },
        {
          "internalType": "uint256",
          "name": "quantity",
          "type": "uint256"
        },
        {
          "internalType": "bool",
          "name": "isBuy",
          "type": "bool"
        }
      ],
      "stateMutability": "view",
      "type": "function",
      "constant": true
    },
    {
      "inputs": [
        {
          "internalType": "bytes32",
          "name": "_merkleRoot",
          "type": "bytes32"
        }
      ],
      "name": "addBlock",
      "outputs": [],
      "stateMutability": "nonpayable",
      "type": "function"
    },
    {
      "inputs": [],
      "name": "getBlocks",
      "outputs": [
        {
          "components": [
            {
              "internalType": "uint256",
              "name": "index",
              "type": "uint256"
            },
            {
              "internalType": "uint256",
              "name": "timestamp",
              "type": "uint256"
            },
            {
              "internalType": "bytes32",
              "name": "merkleRoot",
              "type": "bytes32"
            },
            {
              "internalType": "bytes32",
              "name": "previousHash",
              "type": "bytes32"
            },
            {
              "internalType": "bytes32",
              "name": "hash",
              "type": "bytes32"
            }
          ],
          "internalType": "struct StockTrading.Block[]",
          "name": "",
          "type": "tuple[]"
        }
      ],
      "stateMutability": "view",
      "type": "function",
      "constant": true
    },
    {
      "inputs": [],
      "name": "getLatestBlock",
      "outputs": [
        {
          "components": [
            {
              "internalType": "uint256",
              "name": "index",
              "type": "uint256"
            },
            {
              "internalType": "uint256",
              "name": "timestamp",
              "type": "uint256"
            },
            {
              "internalType": "bytes32",
              "name": "merkleRoot",
              "type": "bytes32"
            },
            {
              "internalType": "bytes32",
              "name": "previousHash",
              "type": "bytes32"
            },
            {
              "internalType": "bytes32",
              "name": "hash",
              "type": "bytes32"
            }
          ],
          "internalType": "struct StockTrading.Block",
          "name": "",
          "type": "tuple"
        }
      ],
      "stateMutability": "view",
      "type": "function",
      "constant": true
    },
    {
      "inputs": [
        {
          "internalType": "bytes32",
          "name": "_root",
          "type": "bytes32"
        }
      ],
      "name": "addMerkleRoot",
      "outputs": [],
      "stateMutability": "nonpayable",
      "type": "function"
    },
    {
      "inputs": [],
      "name": "getMerkleRoots",
      "outputs": [
        {
          "internalType": "bytes32[]",
          "name": "",
          "type": "bytes32[]"
        }
      ],
      "stateMutability": "view",
      "type": "function",
      "constant": true
    },
    {
      "inputs": [],
      "name": "getLatestMerkleRoot",
      "outputs": [
        {
          "internalType": "bytes32",
          "name": "",
          "type": "bytes32"
        }
      ],
      "stateMutability": "view",
      "type": "function",
      "constant": true
    },
    {
      "inputs": [
        {
          "internalType": "string",
          "name": "_stock",
          "type": "string"
        },
        {
          "internalType": "uint256",
          "name": "_qty",
          "type": "uint256"
        }
      ],
      "name": "buyStock",
      "outputs": [],
      "stateMutability": "nonpayable",
      "type": "function"
    },
    {
      "inputs": [
        {
          "internalType": "string",
          "name": "_stock",
          "type": "string"
        },
        {
          "internalType": "uint256",
          "name": "_qty",
          "type": "uint256"
        }
      ],
      "name": "sellStock",
      "outputs": [],
      "stateMutability": "nonpayable",
      "type": "function"
    },
    {
      "inputs": [],
      "name": "getTrades",
      "outputs": [
        {
          "components": [
            {
              "internalType": "string",
              "name": "stock",
              "type": "string"
            },
            {
              "internalType": "uint256",
              "name": "quantity",
              "type": "uint256"
            },
            {
              "internalType": "bool",
              "name": "isBuy",
              "type": "bool"
            }
          ],
          "internalType": "struct StockTrading.Trade[]",
          "name": "",
          "type": "tuple[]"
        }
      ],
      "stateMutability": "view",
      "type": "function",
      "constant": true
    },
    {
      "inputs": [],
      "name": "getAllTrades",
      "outputs": [
        {
          "components": [
            {
              "internalType": "string",
              "name": "stock",
              "type": "string"
            },
            {
              "internalType": "uint256",
              "name": "quantity",
              "type": "uint256"
            },
            {
              "internalType": "bool",
              "name": "isBuy",
              "type": "bool"
            }
          ],
          "internalType": "struct StockTrading.Trade[]",
          "name": "",
          "type": "tuple[]"
        }
      ],
      "stateMutability": "view",
      "type": "function",
      "constant": true
    },
    {
      "inputs": [
        {
          "internalType": "string",
          "name": "_stock",
          "type": "string"
        }
      ],
      "name": "getHolding",
      "outputs": [
        {
          "internalType": "uint256",
          "name": "",
          "type": "uint256"
        }
      ],
      "stateMutability": "view",
      "type": "function",
      "constant": true
    },
    {
      "inputs": [],
      "name": "getBlocksCount",
      "outputs": [
        {
          "internalType": "uint256",
          "name": "",
          "type": "uint256"
        }
      ],
      "stateMutability": "view",
      "type": "function",
      "constant": true
    }
  ],
  "bytecode": "0x608060405234801561001057600080fd5b5033600360006101000a81548173ffffffffffffffffffffffffffffffffffffffff021916908373ffffffffffffffffffffffffffffffffffffffff16021790555061235d806100616000396000f3fe608060405234801561001057600080fd5b50600436106101165760003560e01c806371c5ecb1116100a2578063c60eb35511610071578063c60eb355146102e7578063cb38432314610317578063ce99c0ce14610333578063e43372e914610351578063f25b3f991461036f57610116565b806371c5ecb11461025f57806385135a1a1461028f5780638da5cb5b146102ad5780639c15a104146102cb57610116565b80634f5b7dc2116100e95780634f5b7dc2146101cb57806361d6f78a146101e95780636205b050146102075780636bec7a8a14610225578063705c0f4f1461024357610116565b806313d8f3e41461011b57806325b977fd1461014d5780633323c8071461017d57806347ca9c3314610199575b600080fd5b6101356004803603810190610130919061160b565b6103a3565b60405161014493929190611dbe565b60405180910390f35b61016760048036038101906101629190611670565b61047f565b6040516101749190611ef7565b60405180910390f35b61019760048036038101906101929190611647565b6104e4565b005b6101b360048036038101906101ae9190611705565b6105d7565b6040516101c293929190611dbe565b60405180910390f35b6101d36106a6565b6040516101e09190611d5f565b60405180910390f35b6101f1610737565b6040516101fe9190611edc565b60405180910390f35b61020f610822565b60405161021c9190611ef7565b60405180910390f35b61022d61082f565b60405161023a9190611da3565b60405180910390f35b61025d600480360381019061025891906116b1565b6108d3565b005b61027960048036038101906102749190611705565b610b6d565b6040516102869190611da3565b60405180910390f35b610297610b91565b6040516102a49190611d3d565b60405180910390f35b6102b5610be9565b6040516102c29190611d22565b60405180910390f35b6102e560048036038101906102e091906116b1565b610c0f565b005b61030160048036038101906102fc91906115b7565b610f47565b60405161030e9190611ef7565b60405180910390f35b610331600480360381019061032c9190611647565b610f82565b005b61033b611187565b6040516103489190611d81565b60405180910390f35b61035961129d565b6040516103669190611d81565b60405180910390f35b61038960048036038101906103849190611705565b6113ef565b60405161039a959493929190611f49565b60405180910390f35b600060205281600052604060002081815481106103bf57600080fd5b9060005260206000209060030201600091509150508060000180546103e3906121fe565b80601f016020809104026020016040519081016040528092919081815260200182805461040f906121fe565b801561045c5780601f106104315761010080835404028352916020019161045c565b820191906000526020600020905b81548152906001019060200180831161043f57829003601f168201915b5050505050908060010154908060020160009054906101000a900460ff16905083565b6000600260003373ffffffffffffffffffffffffffffffffffffffff1673ffffffffffffffffffffffffffffffffffffffff168152602001908152602001600020826040516104ce9190611cbd565b9081526020016040518091039020549050919050565b600360009054906101000a900473ffffffffffffffffffffffffffffffffffffffff1673ffffffffffffffffffffffffffffffffffffffff163373ffffffffffffffffffffffffffffffffffffffff1614610574576040517f08c379a000000000000000000000000000000000000000000000000000000000815260040161056b90611dfc565b60405180910390fd5b60048190806001815401808255809150506001900390600052602060002001600090919091909150557fbdd203dd78bf49cf79e4db0ecdf7d27adc380fb1f33beef2667a50db9d2a0e04816040516105cc9190611da3565b60405180910390a150565b600181815481106105e757600080fd5b906000526020600020906003020160009150905080600001805461060a906121fe565b80601f0160208091040260200160405190810160405280929190818152602001828054610636906121fe565b80156106835780601f1061065857610100808354040283529160200191610683565b820191906000526020600020905b81548152906001019060200180831161066657829003601f168201915b5050505050908060010154908060020160009054906101000a900460ff16905083565b60606005805480602002602001604051908101604052809291908181526020016000905b8282101561072e57838290600052602060002090600502016040518060a001604052908160008201548152602001600182015481526020016002820154815260200160038201548152602001600482015481525050815260200190600101906106ca565b50505050905090565b61073f611435565b600060058054905011610787576040517f08c379a000000000000000000000000000000000000000000000000000000000815260040161077e90611ebc565b60405180910390fd5b6005600160058054905061079b9190612136565b815481106107d2577f4e487b7100000000000000000000000000000000000000000000000000000000600052603260045260246000fd5b90600052602060002090600502016040518060a001604052908160008201548152602001600182015481526020016002820154815260200160038201548152602001600482015481525050905090565b6000600580549050905090565b60008060048054905011610878576040517f08c379a000000000000000000000000000000000000000000000000000000000815260040161086f90611e3c565b60405180910390fd5b6004600160048054905061088c9190612136565b815481106108c3577f4e487b7100000000000000000000000000000000000000000000000000000000600052603260045260246000fd5b9060005260206000200154905090565b60008111610916576040517f08c379a000000000000000000000000000000000000000000000000000000000815260040161090d90611e7c565b60405180910390fd5b6103e881111561095b576040517f08c379a000000000000000000000000000000000000000000000000000000000815260040161095290611e9c565b60405180910390fd5b80600260003373ffffffffffffffffffffffffffffffffffffffff1673ffffffffffffffffffffffffffffffffffffffff168152602001908152602001600020836040516109a99190611cbd565b908152602001604051809103902060008282546109c691906120e0565b92505081905550600060405180606001604052808481526020018381526020016001151581525090506000803373ffffffffffffffffffffffffffffffffffffffff1673ffffffffffffffffffffffffffffffffffffffff1681526020019081526020016000208190806001815401808255809150506001900390600052602060002090600302016000909190919091506000820151816000019080519060200190610a7392919061146d565b506020820151816001015560408201518160020160006101000a81548160ff021916908315150217905550505060018190806001815401808255809150506001900390600052602060002090600302016000909190919091506000820151816000019080519060200190610ae892919061146d565b506020820151816001015560408201518160020160006101000a81548160ff02191690831515021790555050503373ffffffffffffffffffffffffffffffffffffffff167fc0b51bf86d5b23d6b64332e0a7b60409a1ddc697e14e4c17b1f2e2cb4f7325bb84846001604051610b6093929190611dbe565b60405180910390a2505050565b60048181548110610b7d57600080fd5b906000526020600020016000915090505481565b60606004805480602002602001604051908101604052809291908181526020018280548015610bdf57602002820191906000526020600020905b815481526020019060010190808311610bcb575b5050505050905090565b600360009054906101000a900473ffffffffffffffffffffffffffffffffffffffff1681565b60008111610c52576040517f08c379a0000000000000000000000000000000000000000000000000000000008152600401610c4990611e7c565b60405180910390fd5b6103e8811115610c97576040517f08c379a0000000000000000000000000000000000000000000000000000000008152600401610c8e90611e9c565b60405180910390fd5b80600260003373ffffffffffffffffffffffffffffffffffffffff1673ffffffffffffffffffffffffffffffffffffffff16815260200190815260200160002083604051610ce59190611cbd565b9081526020016040518091039020541015610d35576040517f08c379a0000000000000000000000000000000000000000000000000000000008152600401610d2c90611e5c565b60405180910390fd5b80600260003373ffffffffffffffffffffffffffffffffffffffff1673ffffffffffffffffffffffffffffffffffffffff16815260200190815260200160002083604051610d839190611cbd565b90815260200160405180910390206000828254610da09190612136565b92505081905550600060405180606001604052808481526020018381526020016000151581525090506000803373ffffffffffffffffffffffffffffffffffffffff1673ffffffffffffffffffffffffffffffffffffffff1681526020019081526020016000208190806001815401808255809150506001900390600052602060002090600302016000909190919091506000820151816000019080519060200190610e4d92919061146d565b506020820151816001015560408201518160020160006101000a81548160ff021916908315150217905550505060018190806001815401808255809150506001900390600052602060002090600302016000909190919091506000820151816000019080519060200190610ec292919061146d565b506020820151816001015560408201518160020160006101000a81548160ff02191690831515021790555050503373ffffffffffffffffffffffffffffffffffffffff167fc0b51bf86d5b23d6b64332e0a7b60409a1ddc697e14e4c17b1f2e2cb4f7325bb84846000604051610f3a93929190611dbe565b60405180910390a2505050565b600260205281600052604060002081805160208101820180518482526020830160208501208183528095505050505050600091509150505481565b600360009054906101000a900473ffffffffffffffffffffffffffffffffffffffff1673ffffffffffffffffffffffffffffffffffffffff163373ffffffffffffffffffffffffffffffffffffffff1614611012576040517f08c379a000000000000000000000000000000000000000000000000000000000815260040161100990611e1c565b60405180910390fd5b60006005805490509050600042905060008083146110875760056001846110399190612136565b81548110611070577f4e487b7100000000000000000000000000000000000000000000000000000000600052603260045260246000fd5b90600052602060002090600502016004015461108c565b6000801b5b90506000838386846040516020016110a79493929190611cd4565b60405160208183030381529060405280519060200120905060056040518060a00160405280868152602001858152602001878152602001848152602001838152509080600181540180825580915050600190039060005260206000209060050201600090919091909150600082015181600001556020820151816001015560408201518160020155606082015181600301556080820151816004015550507fecd1ca63ad56a3d4de5a49d5e1cdb759edadbc508ceae623dc8baabcbd866b7184828760405161117893929190611f12565b60405180910390a15050505050565b60606001805480602002602001604051908101604052809291908181526020016000905b8282101561129457838290600052602060002090600302016040518060600160405290816000820180546111de906121fe565b80601f016020809104026020016040519081016040528092919081815260200182805461120a906121fe565b80156112575780601f1061122c57610100808354040283529160200191611257565b820191906000526020600020905b81548152906001019060200180831161123a57829003601f168201915b50505050508152602001600182015481526020016002820160009054906101000a900460ff161515151581525050815260200190600101906111ab565b50505050905090565b60606000803373ffffffffffffffffffffffffffffffffffffffff1673ffffffffffffffffffffffffffffffffffffffff168152602001908152602001600020805480602002602001604051908101604052809291908181526020016000905b828210156113e65783829060005260206000209060030201604051806060016040529081600082018054611330906121fe565b80601f016020809104026020016040519081016040528092919081815260200182805461135c906121fe565b80156113a95780601f1061137e576101008083540402835291602001916113a9565b820191906000526020600020905b81548152906001019060200180831161138c57829003601f168201915b50505050508152602001600182015481526020016002820160009054906101000a900460ff161515151581525050815260200190600101906112fd565b50505050905090565b600581815481106113ff57600080fd5b90600052602060002090600502016000915090508060000154908060010154908060020154908060030154908060040154905085565b6040518060a0016040528060008152602001600081526020016000801916815260200160008019168152602001600080191681525090565b828054611479906121fe565b90600052602060002090601f01602090048101928261149b57600085556114e2565b82601f106114b457805160ff19168380011785556114e2565b828001600101855582156114e2579182015b828111156114e15782518255916020019190600101906114c6565b5b5090506114ef91906114f3565b5090565b5b8082111561150c5760008160009055506001016114f4565b5090565b600061152361151e84611fcd565b611f9c565b90508281526020810184848401111561153b57600080fd5b6115468482856121bc565b509392505050565b60008135905061155d816122e2565b92915050565b600081359050611572816122f9565b92915050565b600082601f83011261158957600080fd5b8135611599848260208601611510565b91505092915050565b6000813590506115b181612310565b92915050565b600080604083850312156115ca57600080fd5b60006115d88582860161154e565b925050602083013567ffffffffffffffff8111156115f557600080fd5b61160185828601611578565b9150509250929050565b6000806040838503121561161e57600080fd5b600061162c8582860161154e565b925050602061163d858286016115a2565b9150509250929050565b60006020828403121561165957600080fd5b600061166784828501611563565b91505092915050565b60006020828403121561168257600080fd5b600082013567ffffffffffffffff81111561169c57600080fd5b6116a884828501611578565b91505092915050565b600080604083850312156116c457600080fd5b600083013567ffffffffffffffff8111156116de57600080fd5b6116ea85828601611578565b92505060206116fb858286016115a2565b9150509250929050565b60006020828403121561171757600080fd5b6000611725848285016115a2565b91505092915050565b600061173a83836118d0565b60208301905092915050565b60006117528383611b68565b60a08301905092915050565b600061176a8383611c38565b905092915050565b61177b8161216a565b82525050565b600061178c8261202d565b6117968185612080565b93506117a183611ffd565b8060005b838110156117d25781516117b9888261172e565b97506117c483612059565b9250506001810190506117a5565b5085935050505092915050565b60006117ea82612038565b6117f48185612091565b93506117ff8361200d565b8060005b838110156118305781516118178882611746565b975061182283612066565b925050600181019050611803565b5085935050505092915050565b600061184882612043565b61185281856120a2565b9350836020820285016118648561201d565b8060005b858110156118a05784840389528151611881858261175e565b945061188c83612073565b925060208a01995050600181019050611868565b50829750879550505050505092915050565b6118bb8161217c565b82525050565b6118ca8161217c565b82525050565b6118d981612188565b82525050565b6118e881612188565b82525050565b6118ff6118fa82612188565b612230565b82525050565b60006119108261204e565b61191a81856120b3565b935061192a8185602086016121cb565b611933816122d1565b840191505092915050565b60006119498261204e565b61195381856120c4565b93506119638185602086016121cb565b61196c816122d1565b840191505092915050565b60006119828261204e565b61198c81856120d5565b935061199c8185602086016121cb565b80840191505092915050565b60006119b56017836120c4565b91507f4f6e6c79206f776e65722063616e2061646420726f6f740000000000000000006000830152602082019050919050565b60006119f56018836120c4565b91507f4f6e6c79206f776e65722063616e2061646420626c6f636b00000000000000006000830152602082019050919050565b6000611a35600c836120c4565b91507f4e6f20726f6f74732079657400000000000000000000000000000000000000006000830152602082019050919050565b6000611a756019836120c4565b91507f4e6f7420656e6f7567682073746f636b7320746f2073656c6c000000000000006000830152602082019050919050565b6000611ab56010836120c4565b91507f496e76616c6964207175616e74697479000000000000000000000000000000006000830152602082019050919050565b6000611af5600f836120c4565b91507f546f6f206c61726765206f7264657200000000000000000000000000000000006000830152602082019050919050565b6000611b35600d836120c4565b91507f4e6f20626c6f636b7320796574000000000000000000000000000000000000006000830152602082019050919050565b60a082016000820151611b7e6000850182611c88565b506020820151611b916020850182611c88565b506040820151611ba460408501826118d0565b506060820151611bb760608501826118d0565b506080820151611bca60808501826118d0565b50505050565b60a082016000820151611be66000850182611c88565b506020820151611bf96020850182611c88565b506040820151611c0c60408501826118d0565b506060820151611c1f60608501826118d0565b506080820151611c3260808501826118d0565b50505050565b60006060830160008301518482036000860152611c558282611905565b9150506020830151611c6a6020860182611c88565b506040830151611c7d60408601826118b2565b508091505092915050565b611c91816121b2565b82525050565b611ca0816121b2565b82525050565b611cb7611cb2826121b2565b61223a565b82525050565b6000611cc98284611977565b915081905092915050565b6000611ce08287611ca6565b602082019150611cf08286611ca6565b602082019150611d0082856118ee565b602082019150611d1082846118ee565b60208201915081905095945050505050565b6000602082019050611d376000830184611772565b92915050565b60006020820190508181036000830152611d578184611781565b905092915050565b60006020820190508181036000830152611d7981846117df565b905092915050565b60006020820190508181036000830152611d9b818461183d565b905092915050565b6000602082019050611db860008301846118df565b92915050565b60006060820190508181036000830152611dd8818661193e565b9050611de76020830185611c97565b611df460408301846118c1565b949350505050565b60006020820190508181036000830152611e15816119a8565b9050919050565b60006020820190508181036000830152611e35816119e8565b9050919050565b60006020820190508181036000830152611e5581611a28565b9050919050565b60006020820190508181036000830152611e7581611a68565b9050919050565b60006020820190508181036000830152611e9581611aa8565b9050919050565b60006020820190508181036000830152611eb581611ae8565b9050919050565b60006020820190508181036000830152611ed581611b28565b9050919050565b600060a082019050611ef16000830184611bd0565b92915050565b6000602082019050611f0c6000830184611c97565b92915050565b6000606082019050611f276000830186611c97565b611f3460208301856118df565b611f4160408301846118df565b949350505050565b600060a082019050611f5e6000830188611c97565b611f6b6020830187611c97565b611f7860408301866118df565b611f8560608301856118df565b611f9260808301846118df565b9695505050505050565b6000604051905081810181811067ffffffffffffffff82111715611fc357611fc26122a2565b5b8060405250919050565b600067ffffffffffffffff821115611fe857611fe76122a2565b5b601f19601f8301169050602081019050919050565b6000819050602082019050919050565b6000819050602082019050919050565b6000819050602082019050919050565b600081519050919050565b600081519050919050565b600081519050919050565b600081519050919050565b6000602082019050919050565b6000602082019050919050565b6000602082019050919050565b600082825260208201905092915050565b600082825260208201905092915050565b600082825260208201905092915050565b600082825260208201905092915050565b600082825260208201905092915050565b600081905092915050565b60006120eb826121b2565b91506120f6836121b2565b9250827fffffffffffffffffffffffffffffffffffffffffffffffffffffffffffffffff0382111561212b5761212a612244565b5b828201905092915050565b6000612141826121b2565b915061214c836121b2565b92508282101561215f5761215e612244565b5b828203905092915050565b600061217582612192565b9050919050565b60008115159050919050565b6000819050919050565b600073ffffffffffffffffffffffffffffffffffffffff82169050919050565b6000819050919050565b82818337600083830152505050565b60005b838110156121e95780820151818401526020810190506121ce565b838111156121f8576000848401525b50505050565b6000600282049050600182168061221657607f821691505b6020821081141561222a57612229612273565b5b50919050565b6000819050919050565b6000819050919050565b7f4e487b7100000000000000000000000000000000000000000000000000000000600052601160045260246000fd5b7f4e487b7100000000000000000000000000000000000000000000000000000000600052602260045260246000fd5b7f4e487b7100000000000000000000000000000000000000000000000000000000600052604160045260246000fd5b6000601f19601f8301169050919050565b6122eb8161216a565b81146122f657600080fd5b50565b61230281612188565b811461230d57600080fd5b50565b612319816121b2565b811461232457600080fd5b5056fea26469706673582212201cc208bf6e00153acfecf03e4a4ab3e929fce84095152c7dc858abaaf347756464736f6c63430008000033",
  "immutableReferences": {},
  "source": "// SPDX-License-Identifier: MIT\r\npragma solidity ^0.8.0;\r\n\r\ncontract StockTrading {\r\n\r\n    // ---------------- TRADE STRUCT ----------------\r\n    struct Trade {\r\n        string stock;\r\n        uint quantity;\r\n        bool isBuy;\r\n    }\r\n\r\n    // ---------------- BLOCK STRUCT ----------------\r\n    struct Block {\r\n        uint index;\r\n        uint timestamp;\r\n        bytes32 merkleRoot;\r\n        bytes32 previousHash;\r\n        bytes32 hash;\r\n    }\r\n\r\n    // ---------------- STORAGE ----------------\r\n\r\n    // Per-user trades\r\n    mapping(address => Trade[]) public trades;\r\n\r\n    // Global trades (ALL users)\r\n    Trade[] public allTrades;\r\n\r\n    // Track holdings\r\n    mapping(address => mapping(string => uint)) public holdings;\r\n\r\n    // Owner\r\n    address public owner;\r\n\r\n    // Old Merkle storage (optional, can keep or remove)\r\n    bytes32[] public merkleRoots;\r\n\r\n    // NEW: Blockchain-style blocks\r\n    Block[] public blocks;\r\n\r\n    // ---------------- EVENTS ----------------\r\n    event TradeExecuted(address indexed user, string stock, uint qty, bool isBuy);\r\n    event MerkleRootAdded(bytes32 root);\r\n    event BlockCreated(uint index, bytes32 hash, bytes32 merkleRoot);\r\n\r\n    constructor() {\r\n        owner = msg.sender;\r\n    }\r\n\r\n    // ---------------- BLOCK FUNCTIONS ----------------\r\n\r\n    function addBlock(bytes32 _merkleRoot) public {\r\n        require(msg.sender == owner, \"Only owner can add block\");\r\n\r\n        uint index = blocks.length;\r\n        uint timestamp = block.timestamp;\r\n\r\n        bytes32 previousHash = index == 0\r\n            ? bytes32(0)\r\n            : blocks[index - 1].hash;\r\n\r\n        bytes32 hash = keccak256(\r\n            abi.encodePacked(index, timestamp, _merkleRoot, previousHash)\r\n        );\r\n\r\n        blocks.push(Block(index, timestamp, _merkleRoot, previousHash, hash));\r\n\r\n        emit BlockCreated(index, hash, _merkleRoot);\r\n    }\r\n\r\n    function getBlocks() public view returns (Block[] memory) {\r\n        return blocks;\r\n    }\r\n\r\n    function getLatestBlock() public view returns (Block memory) {\r\n        require(blocks.length > 0, \"No blocks yet\");\r\n        return blocks[blocks.length - 1];\r\n    }\r\n\r\n    // ---------------- MERKLE FUNCTIONS (OPTIONAL) ----------------\r\n\r\n    function addMerkleRoot(bytes32 _root) public {\r\n        require(msg.sender == owner, \"Only owner can add root\");\r\n\r\n        merkleRoots.push(_root);\r\n\r\n        emit MerkleRootAdded(_root);\r\n    }\r\n\r\n    function getMerkleRoots() public view returns (bytes32[] memory) {\r\n        return merkleRoots;\r\n    }\r\n\r\n    function getLatestMerkleRoot() public view returns (bytes32) {\r\n        require(merkleRoots.length > 0, \"No roots yet\");\r\n        return merkleRoots[merkleRoots.length - 1];\r\n    }\r\n\r\n    // ---------------- TRADING FUNCTIONS ----------------\r\n\r\n    function buyStock(string memory _stock, uint _qty) public {\r\n        require(_qty > 0, \"Invalid quantity\");\r\n        require(_qty <= 1000, \"Too large order\");\r\n\r\n        holdings[msg.sender][_stock] += _qty;\r\n\r\n        Trade memory t = Trade(_stock, _qty, true);\r\n\r\n        trades[msg.sender].push(t);\r\n        allTrades.push(t);\r\n\r\n        emit TradeExecuted(msg.sender, _stock, _qty, true);\r\n    }\r\n\r\n    function sellStock(string memory _stock, uint _qty) public {\r\n        require(_qty > 0, \"Invalid quantity\");\r\n        require(_qty <= 1000, \"Too large order\");\r\n\r\n        require(\r\n            holdings[msg.sender][_stock] >= _qty,\r\n            \"Not enough stocks to sell\"\r\n        );\r\n\r\n        holdings[msg.sender][_stock] -= _qty;\r\n\r\n        Trade memory t = Trade(_stock, _qty, false);\r\n\r\n        trades[msg.sender].push(t);\r\n        allTrades.push(t);\r\n\r\n        emit TradeExecuted(msg.sender, _stock, _qty, false);\r\n    }\r\n\r\n    function getTrades() public view returns (Trade[] memory) {\r\n        return trades[msg.sender];\r\n    }\r\n\r\n    function getAllTrades() public view returns (Trade[] memory) {\r\n        return allTrades;\r\n    }\r\n\r\n    function getHolding(string memory _stock) public view returns (uint) {\r\n        return holdings[msg.sender][_stock];\r\n    }\r\n    function getBlocksCount() public view returns (uint) {\r\n    return blocks.length;\r\n    }\r\n}",
  "sourcePath": "D:\\BlockchainProject\\StockTradingDApp\\blockchain\\contracts\\Stock.sol",
  "compiler": {
    "name": "solc",
    "version": "0.8.0+commit.c7dfd78e.Emscripten.clang"
  },
  "schemaVersion": "3.4.16",
  "updatedAt": "2026-03-23T11:00:36.724Z",
  "networkType": "ethereum",
  "devdoc": {
    "kind": "dev",
    "methods": {},
    "version": 1
  },
  "userdoc": {
    "kind": "user",
    "methods": {},
    "version": 1
  }
}